:04000000020049327F
:01000B0032C2
:0100130032BA
:01001B0032B2
:0100230032AA
:01002B0032A2
:01003300329A
:01003B003292
:030043000200BDFB
:0300BA00020046FB
:030046000200FCB9
:1000BD00C022C0E0C0F0C082C083C007C006C0052A
:1000CD00C004C003C002C001C000C0D075D0001272
:1000DD00092BD0D0D000D001D002D003D004D00550
:1000ED00D006D007D083D082D0F0D0E0D02232C25B
:1000FD0000C201C202C203C204C205C20675A155E7
:10010D0075A1AA53B9F843B90575A10090000A125B
:10011D00028820B30B75E200C2AF7589001238005A
:10012D001209BA9001F412028875FF0075A1557578
:10013D00A1AA43B10175A100A291B39207200001BC
:10014D00B34010B2003000087582B6120516800358
:10015D00120526A297B39207200101B34010B201F8
:10016D003001087582B01205168003120526A2967D
:10017D00B39207200201B34010B20230020875821B
:10018D00B51205168003120526A295B3920720031A
:10019D0001B3401CB2033003147582831203C49063
:1001AD00001E1202887582641204C480031204D2E8
:1001BD00A294B39207200401B3401CB2043004147E
:1001CD007582831203C490001E1202887582651217
:1001DD0004C480031204D2A2B2B39207200501B366
:1001ED004028B2053005207582801203C490001E90
:1001FD001202887582831203C490001E1202887544
:10020D0082681204C480031204D220B12830B011C8
:10021D007582E912051690000512028812052680D6
:10022D000F7582EA12051690000512028812052636
:10023D0020B11D80FB20060D20B30A7582E2120548
:10024D0016D206800B30060830B305120526C206FD
:10025D0090000112028875FF00020145AE82AF8346
:10026D00EE4F6016E5A104F5A1E5A104F5A1E5A108
:10027D0004F5A11EBEFF011F80E622AE82AF83EE04
:10028D004F60159003E8C007C006120269D006D072
:09029D00071EBEFF011F80E722CD
:1002A700C007AF82DFFED007227F08C58233D29016
:1002B7009290000000000000C2900000DFEF22755E
:1002C7000800750901C2AF7F36850882850983E07A
:1002D700FE0508E4B5080205098E82C0071202B0C0
:1002E700D007DFE5D2AF90011902026975080075E2
:1002F70009017F36850882850983E4F00508B5087A
:10030700020509DFEF0202C6AF828F17751800904A
:100317000003120A23AE82AF83EE2400F508EF3400
:1003270001F509850882850983E50BF00508E4B521
:1003370008020509850882850983E50AF00508E4AE
:10034700B508020509850882850983E50CF022AF07
:1003570082E50D23235403FEAD0D743F5D850EF03A
:1003670005F0800225E0D5F0FBFD850EF005F07461
:100377003F800225E0D5F0FB8D03C39BFCBE000246
:10038700800ABE01028011BE022680188C0A8D0BDE
:10039700750C008F8202030F750A008C0B8D0C8F72
:1003A7008202030F8D0A750B008C0C8F8202030FDC
:0D03B70022750A00750B00750C0002030F83
:10005C009001367401F0900137E4F0900138F09083
:10006C000139F090013AF090013BF090013CF09096
:10007C00013DF090013E7402F090013FE4F09001DC
:10008C0040F09001417403F0900142E4F090014380
:10009C00F0900144F0900145F09001467404F0900A
:0C00AC000147E4F0900148F0900149F099
:1003C400AF82BF880040088F06EE2478FE803EBFCF
:1003D40080004022900137E0FD8F04EC2480F5F08A
:1003E40005F07401800225E0D5F0FB420590013749
:1003F400EDF07E008017EF900A6093FE700122EE0C
:1004040030E70A900137E04402F053067F7F03EFA0
:100414002436F582E43401F583E0B50601220FBFEA
:10042400080040EB7F03EF2436FCE43401FD8C82AA
:100434008D83E0700F8C828D83EEF0751708900128
:10044400360209C10FBF080040DC22AF82BF88001A
:1004540040088F06EE2478FE803FBF800040239042
:100464000137E0FD8F04EC2480F5F005F074018081
:100474000225E0D5F0FBF45205900137EDF07E0043
:100484008017EF900A6093FE700122EE30E70A9025
:100494000137E054FDF053067F7F03EF2436FCE47C
:1004A4003401FD8C828D83E0B506068C828D83E455
:1004B400F00FBF080040E47517089001360209C127
:1004C400AF82C0071203C4D0078F8202044F7F0794
:1004D400EF2436F582E43401F583E4F0DFF2751796
:1004E400089001360209C1AD82AE83AFF08D828ED1
:1004F400838FF0120A40FC60188C820DBD00010E3F
:10050400C007C006C0051204C4D005D006D00780B9
:10051400DC22AF8290013FEFF075170390013E0299
:1005240009C190013FE4F075170390013E0209C12F
:10053400120516020526AF82900142E0420790019F
:1005440042EFF07517059001410209C1AF82900195
:1005540042E0FEEFF45206900142EEF0751705906A
:1005640001410209C1AF82900143EFF0AF0F900146
:1005740044EFF07517059001411209C1900143E45D
:10058400F0900144F022AF82900145EFF075170519
:100594009001411209C1900145E4F022AF8290011B
:1005A40047E04207900147EFF075170490014602B7
:1005B40009C1AF82900147E0FEEFF4520690014773
:1005C400EEF07517049001460209C1AF829001480C
:1005D400EFF0AF10900149EFF07517049001460257
:0205E40009C14B
:100A600000000000000000002A2B28000000000009
:100A70000000000000000000000000000000000076
:100A80002C9EB4A0A1A2A434A6A7A5AE362D3738BB
:100A9000271E1F20212223242526B333B62EB7B8C4
:100AA0009F8485868788898A8B8C8D8E8F90919282
:100AB000939495969798999A9B9C9D2F3130A3ADCE
:100AC000350405060708090A0B0C0D0E0F1011124C
:100AD000131415161718191A1B1C1DAFB1B0B50049
:100AE0001201100100000008891190880001010224
:100AF000030109022900010100804B0904000002E2
:100B00000301010409211001210122BF0007058111
:100B1000030800010705020308000A05010906A1F0
:100B2000018501050719E029E715002501750195E3
:100B3000088102750895018103190029E71500262F
:100B4000FF007508950581000508190129051500A4
:100B50002501750195059102750395019103C00565
:100B60000C0901A101850219002A3C021500263C4E
:100B700002751095018100C005010902A10109015A
:100B8000A100850305091901290315002501750137
:100B9000950381027505950181030501093009312D
:100BA00009381581257F750895038106C0C00501A8
:100BB0000905A101A10085040509190129081500ED
:100BC000250175019508810205010930093115815A
:100BD000257F750895028102C0C0BF04030904186F
:100BE00003700073006500750064006F007200619F
:100BF000006C007000680014034D00610063007217
:100C0000006F00700061006400360008033000309F
:100C10000031001A034800490044002D004B0065D4
:0D0C200000790062006F0061007200640046
:1005E600C007AF8205A290000015A2851582851668
:1005F60083E493A3A5DFFAD00722AFDBBF0802800E
:10060600030208A8900007E0FE7F00900006E0FDC8
:100616007C004FF511EC4EF512900001E0F51390B9
:100626000000E0FE546060057FFF0208AAE513247F
:10063600F450030208A4E513240B83F582E5132482
:100646001083F583E4738684A4EEA45364A4607BCC
:10065600AAAA080708070807060807070808900057
:1006660003E0FEBE01028012BE02028017BE030234
:10067600801CBE220280690206FE7515E075160A08
:100686007F1280767515F275160A7F29806C9000A8
:1006960002E0FE24FB4038EE2E9006A3738008800D
:1006A6000E8014801A80207515DB75160B80267552
:1006B60015DF75160B801E7515F775160B801675EA
:1006C600150B75160C800E75151375160C800675B0
:1006D600150B75160C851582851683E493FF801A13
:1006E600900002E0700E75151B75160B900BDAE480
:1006F60093FF80067FFF80027FFFBFFF030208AAE9
:100706008F057E00C3ED9511EE951250048D118E66
:1007160012AD11AE12C3ED9408EE94009208400497
:100726007D088002AD118D078F821205E68F06AC1B
:1007360011AD127B00ECC39EFCED9BFD8C118D125E
:10074600EF2515F515E43516F5160208AA900002F0
:10075600E0FE8E117512000208AA900000E514F062
:10076600AD11AE12C3ED9401EE940050030208AA37
:100776007F010208AA900002E0F5140208AA900080
:1007860000E0541F702D900003E0FD7E00900002F3
:10079600E07B004206EB4205BE0113BD0010900A45
:1007A600F9E49330E5030208AA7FFF0208AA7FFF57
:1007B6000208AA900000E0FE53061FBE0225900024
:1007C60004E0FEBE02028005BE8113800653D47388
:1007D6000208AA74BC55D24402F5D20208AA7FFFC9
:1007E6000208AA7FFF0208AA900000E0541F702D9D
:1007F600900003E0FD7E00900002E07B004206EBE5
:100806004205BE0113BD0010900AF9E49330E503DA
:100816000208AA7FFF0208AA7FFF0208AA9000002A
:10082600E0FE53061FBE0254900003E0FD7E0090DA
:100836000002E07B004206EB4205EE4D703A900066
:1008460005E0FD7E00900004E07B004206EB4205D9
:10085600BE0205BD00028008BE8119BD0016800AD1
:10086600747F55D4440CF5D4803A74BF55D24403F2
:10087600F5D280307FFF802C7FFF80287FFF802489
:10088600900000E4F0900001F0AD11AE12C3ED94BB
:1008960002EE940040047F02800AAF1180067FFFBB
:1008A60080027FFFBFFF077513FF75DCCF22EF24A1
:1008B600F740068FDD75DCC02275DD0075DCC022D1
:1008C6007405B5130280427406B5134BAE11AF1210
:1008D600C3EE9408EF9400920940047E088002AEAD
:1008E600118E821205E68E07AC11AD127B00ECC3A9
:1008F6009FFCED9BFD8C118D12EE2515F515E4354B
:1009060016F5168EDD63DC4022E5E35480FFE51123
:100916004FF5E375DC022275DD0075DC022275DD1C
:100926000043DC022230D94EE5D9540FFFAED9532D
:100936000630BE0002800FBE10028038BE20028044
:1009460019BE30308028BF00028005BF0226800510
:10095600120924801F120A22801ABF00028005BFD6
:10096600011280051208C6800B120A148006BF0009
:1009760003120600C2D930D80F75DC02120A0B75B5
:10098600E300C2DAC2D9C2D810DA0122E5DA20E2DF
:100996000375D8FF2275E22975D181E4F5ECF5EDF2
:1009A60075DC021209F243E10743D81FD2EAD2AF3F
:0409B60075DD0022C9
:0200B800C20A7A
:1009BA0012099B75D30022AE82AF83200AFD7D0007
:1009CA00C3ED95175019ED240AFBE43400FCED2E13
:1009DA00F582E43FF583E08B828C83F00D80E1851C
:1009EA0017D3D20A53D2FC2275EE0A75EF0075E4CA
:1009FA001475E50075D21275D41075EA4075EB08C6
:100A0A002275D21275D410C20A2275D30074FC550D
:090A1A00D24402F5D2C20A2222E4
:06005600E478FFF6D8FD7E
:100A2300E5828517F0A4C582C0F08518F0A4D0F044
:0D0A330025F0C5838517F0A42583F58322E7
:0D004900758122120A5CE582600302004608
:100A400020F71430F6148883A88220F507E6A883DF
:100A500075830022E280F7E49322E022758200226F
:00000001FF
